:020000040000FA
:040000000DEF00F010
:0400080007EF01F00D
:10001800FF0073EF00F0BE6ABF6AC06A3F0EC66E8B
:10002800B00EC76EFB0EC86E0401106FB00E086FDD
:10003800370E006F096B016B116B026B0A6B126B49
:10004800370E036FF00E0B6F13693F0E046FF00E3F
:100058000C6F1469190E02010F6F190C0E041DE1C3
:10006800010E0E6E0D500DE11EEC01F0FF0A03E1CA
:10007800010E0D6E010C1EEC01F0026E022812EF4B
:1000880001F01EEC01F0000902E10D6A12001EECFD
:1000980001F0026E020412EF01F00E2A12000301B1
:1000A800156B166B030E176F1369930E126FB698C4
:1000B800125160004CFC05F5066A05C506F5056A8F
:1000C8000510096E06500A6EAB88460E036E020EC6
:1000D800046E0DEC01F0050E0301146F050C480EBB
:1000E800F66E020EF76E000EF86E09006100D4F38A
:1000F8000EF50D6A0C6A0B6A0401080E5D6F000E9E
:100108005E6F000E5F6F000EF86E0001CFEF00F01B
:10011800B69809C501F50AC502F5B2EC00F00B4A1C
:100128000C2AEE0E0B5C020E0C58D8A01200C1EC83
:1001380000F00B6A0C6A120021EC01F0F1EC00F0FF
:100148000FEC00F0E7EC00F017EC01F001EC01F027
:10015800F9EC00F053EC00F0DBEF00F0030114A51C
:1001680005D0149103D81481120000D0610008F45E
:1001780013F3610004F412F3120007500810D8B406
:1001880012000500FA6E0750FD6E0850FE6EF8501A
:10019800FF6EFA501200A0EC00F0640E036E000E21
:1001A800046E0DEC01F0D68E1BEC01F0FFD76F0E3C
:1001B8000001A46F120EA56F800EA66FA76BA96B26
:1001C800800EA36F800C600E0001AD6FAF6BB36B38
:1001D800080EB16FB06BAC6B12000001636B646BFF
:1001E800656B666B676B686B1200830E706F716B63
:1001F800030E726F050E736F050C880E0001A26F57
:10020800FA0EA06FFA0CABB8B6A811008CEC00F08F
:10021800110003C507F504C508F51200016E610059
:1002280004F4A0F01200840E0301D76F840C0301BC
:10023800148112000001A0511200D69A1200120077
:0102480001B4
:020000040020DA
:10000000FF0FFF0FFF0FFF0FFF0FFF0FFF0FFF0F80
:10001000FF0FFF0FFF0FFF0FFF0FFF0FFF0FFF0F70
:020000040030CA
:0A0000008CFFF7FF9FFFFFFFFFFFDB
:00000001FF
