:020000040000FA
:040000000DEF00F010
:0400080013EF01F001
:10001800FF00B9EF00F00E04D8A415EF00F017EFB9
:1000280000F04DEF00F0010E0E6E0D50D8A41FEF3A
:1000380000F021EF00F037EF00F07EEC01F0FF0A4E
:10004800D8A429EF00F02BEF00F02FEF00F0010EFD
:100058000D6E4EEF00F07EEC01F0026E022872EC9D
:1000680001F04EEF00F07EEC01F00009D8A43FEF5C
:1000780000F041EF00F045EF00F0000E0D6E4EEF7E
:1000880000F07EEC01F0026E020472EC01F04EEF1B
:1000980000F00E2A1200000EBE6E000EBF6E000E9B
:1000A800C06E3F0EC66EB00EC76EFB0EC86EFB0E5E
:1000B8000401106FB00E086F370E006F000E096F45
:1000C800000E016F000E116F000E026F000E0A6F16
:1000D800000E126F370E036FF00E0B6F13693F0E91
:1000E800046FF00E0C6F1469190E02010F6F1200E5
:1000F800000E0301156F000E166F030E176F1369BC
:10010800930E126FB698125160004CFC05F5066A02
:1001180005C506F5056A0510096E06500A6EAB8816
:10012800060E036E030E046E6DEC01F0050E03015E
:10013800146F1200B69809C501F50AC502F5D2EC8C
:1001480000F00B4A0C2AEE0E0B5C020E0C58D8A0DD
:10015800B0EF00F0B2EF00F0B8EF00F0E9EC00F01B
:10016800000E0C6E000E0B6E1200080EF66E030EDB
:10017800F76E000EF86E09006100D4F30EF50D6AF3
:100188000C6A0B6A0401080E5D6F000E5E6F000EAC
:100198005F6F000EF86E000124EF01F0030114A553
:1001A800D8EF00F0DAEF00F0E3EF00F0149102501E
:1001B800136F610004F412F31481E8EF00F00250A9
:1001C800136F610004F412F3120007500810D8B43A
:1001D800F0EF00F0F2EF00F0FFEF00F002D8FFEFD1
:1001E80000F00500FA6E0750FD6E0850FE6EF850DC
:1001F800FF6EFA501200120081EC01F033EC01F0AE
:100208004FEC00F041EC01F077EC01F067EC01F005
:100218005DEC01F07CEC00F04FEC01F01200ABA8B3
:1002280018EF01F01AEF01F023EF01F0B6A81FEF65
:1002380001F021EF01F023EF01F09EEC00F0110036
:1002480000EC01F01E0E036E000E046E6DEC01F062
:10025800D68E7BEC01F02FEF01F00DEF00F0000ED1
:100268000001636F000E646F000E656F000E666F0D
:10027800000E676F000E686F1200600E0001AD6F10
:10028800000EAF6F000EB36F080EB16F000EB06FA7
:10029800000EAC6F12006F0E0001A46F120EA56F56
:1002A800800EA66F000EA76F000EA96F800EA36FB9
:1002B8001200830E0001706F000E716F030E726FD3
:1002C800050E736F1200880E0001A26FFA0EA06F60
:1002D800120003C507F504C508F51200016E610098
:1002E80004F4A0F01200840E0301D76F120003017A
:1002F800148112000001A0511200D69A12001200B7
:0103080001F3
:020000040020DA
:10000000FF0FFF0FFF0FFF0FFF0FFF0FFF0FFF0F80
:10001000FF0FFF0FFF0FFF0FFF0FFF0FFF0FFF0F70
:020000040030CA
:0A0000008CFFF7FF9FFFFFFFFFFFDB
:00000001FF
